:020000040800F2
:10000000A8CF0120DD010008CF9A0108458501082D
:10001000CD9A0108693B01082FB0010800000000DB
:10002000000000000000000000000000DDA3010847
:100030000D3D010800000000DD9A0108F5010008EF
:10004000F7010008F7010008F7010008F7010008B0
:10005000F7010008F7010008F7010008F7010008A0
:10006000F7010008F7010008F7010008F701000890
:10007000F7010008F7010008F7010008F701000880
:10008000F7010008F7010008F7010008F701000870
:10009000F7010008F7010008F7010008F701000860
:1000A000F7010008F7010008F7010008F701000850
:1000B000F7010008F7010008F7010008F701000840
:1000C000F7010008F7010008F7010008F701000830
:1000D000F7010008F7010008F7010008F701000820
:1000E000F7010008F7010008F7010008F701000810
:1000F000F7010008F7010008F7010008F701000800
:10010000F7010008F7010008F7010008F7010008EF
:10011000F7010008F701000811A50108F701000820
:10012000F7010008F7010008F7010008F7010008CF
:10013000F7010008F7010008F7010008F7010008BF
:10014000F7010008F7010008F7010008D19A01083B
:10015000F7010008F7010008F7010008F70100089F
:10016000F7010008F7010008F7010008F70100088F
:10017000F7010008F7010008F7010008000000007F
:10018000F7010008F7010008F7010008F70100086F
:10019000F7010008F7010008F7010008F70100085F
:1001A000A18E0108F7010008513C0108F701000881
:1001B000F7010008F7010008F7010008F70100083F
:1001C000F7010008F7010008DFF80CD000F0B2F8E2
:1001D00000480047DDB60108A8CF01200648804747
:1001E00006480047FEE7FEE7FEE7FEE7FEE7FEE71C
:1001F000FEE7FEE7FEE7FEE7BDA40108C90100082F
:100200002DE9F05F0546002092469B46884606464B
:10021000814640241BE0284641464746224600F0DE
:1002200078F853465A46C01A914110D311461846E1
:10023000224600F05FF82D1A67EB01084F46224670
:100240000120002100F056F817EB00094E41201E56
:10025000A4F10104DFDC484631462A464346BDE8A6
:10026000F09F10B5441A0346944209D284181144F1
:1002700003E011F8013D04F8013D521EF9D210BD12
:1002800040EA0104A40703D009E010C9121F10C3FB
:10029000042AFAD203E011F8014B03F8014B521E75
:1002A000F9D210BDD2B201E000F8012B491EFBD2F9
:1002B00070470022F6E710B513460A460446194671
:1002C000FFF7F0FF204610BD30B50446002003467E
:1002D00000E05B1C934203D2E05CCD5C401BF8D095
:1002E00030BD034611F8012B00F8012B002AF9D18B
:1002F00018467047202A04DB203A00FA02F1002059
:1003000070479140C2F1200320FA03F31943904053
:100310007047202A04DB203A21FA02F000217047BE
:1003200021FA02F3D040C2F120029140084319465D
:1003300070470000064C074D06E0E06840F00103FE
:1003400094E8070098471034AC42F6D3FFF740FF1B
:10035000400002086000020870B58C1810F8015BBC
:1003600015F0070301D110F8013B2A1106D110F84E
:10037000012B03E010F8016B01F8016B5B1EF9D152
:100380002B0705D40023521E0DD401F8013BFAE7D8
:1003900010F8013BCB1A921C03E013F8015B01F843
:1003A000015B521EF9D5A142D8D3002070BD0000D8
:1003B00070B5456882B004460146284608F02CFC1A
:1003C00068B123680F2B59D00BDD282B45D0B3F52E
:1003D000107F3CD0112B49D0204608F097FE02B088
:1003E00070BD0B2B20D00E2BF6D1E3681A6859682C
:1003F0000D2A53D0202A31D1002928464FF480718C
:100400007DDD08F0EBFC284602F0ACF902AB846A13
:1004100043F8040D184602F069FAA207DFD5284612
:1004200001210AF03BF8DAE7284602AD02F09AF91A
:1004300003466830019301F087FF55F8040D03214E
:100440006C3001F09DFF284602F050FAC4E7324BB1
:10045000214628461B689847C1E7E368002BBBD1BB
:1004600028464FF4807108F0BFFBB5E72B4B1B68A3
:10047000002BB4D0214628469847B0E7284602F022
:1004800071F9034602A840F8043D5B6E1C6802F057
:100490002DFA002CA3D02846A047A0E70029DDDDD7
:1004A0004FF48071284608F099FC02AC284602F00F
:1004B00059F9866A44F8040D204602F017FAB1078C
:1004C00003D50121284609F0E9FF4FF48071284641
:1004D00008F08AFB284602F045F9034620461E8EA6
:1004E0009C6A019302F002FA304605F05FFBA30715
:1004F0007FF575AF2846022109F0D0FF6FE708F0BD
:1005000073FB284602F02EF9034602A89C6A1E8E51
:1005100040F8043DE6E700BFA0000020DCC8012051
:100520002DE9F043044687B0304F00260091A569BD
:10053000B0F90C104C35B0F90A001944B4F9103078
:100540001044B4F90E20039502970196B4F90850AF
:1005500008F0F0FC804618B9404607B0BDE8F083CB
:10056000234F0DF1180902F0FDF8294610220590DD
:100570003E1D08F04BFC59F804ED0FCE0EF134058A
:100580000FC50FCE0FC596E80F0085E80F007B6BF7
:100590004846CEF8643002F0A9F97B6B40465B68B0
:1005A00098474046656802F0DDF8034604A89C6E53
:1005B0000493059402F09AF92946484606F0A0FEF5
:1005C0000028C9D0059B9C4209D0404602F0CAF8D9
:1005D000059A034604A89A66049302F087F94046F8
:1005E00009F08AFC404607B0BDE8F083B10300087B
:1005F000A0000020974A816843682DE9F041044635
:1006000088B052F82160122B40D8DFE803F0B03FE9
:100610003F3F3F0A973F3F3F3F3F3F3F3F3F3F3FC7
:100620004300F569002D40F0B580371F57F8040FDF
:1006300005F064FA04F1140120690EC928445B1B1B
:10064000521B2944013503F01BF8022DEED16269DB
:100650003169E3690191911CF76813442069A2692B
:100660005B1028440097521B02F082FDE169626929
:10067000B0698B1E1144A269019049102069766906
:10068000521B01312844009602F072FD002008B090
:10069000BDE8F081006802F065F8876E0490002FD5
:1006A00000F0D080A368B0F95C80002B00F0C88017
:1006B000032B14BF0023022300EB8303406D08AC1F
:1006C0001D6C05F01FFA284605F018FA06A803F07D
:1006D00033F9B28BBDF8181006A8BDF81C301144D0
:1006E000BDF81A509A1ABDF81E30ADF81810023530
:1006F00054F8101D023BADF81C20B1F96020B1F98F
:100700005E10ADF81E30ADF81A5004F063FD2046BF
:1007100008AC02F0EBF8022005F036FA384602F099
:1007200021F806A9424644F80C0D02F0FDFC2046D3
:1007300002F0DCF8002008B0BDE8F081006802F0AB
:1007400011F8049020680BF01DF9B8B9049B5D6F97
:1007500005B9DD6E04A802F0C9F800232846216817
:100760001A4602F0ADFC002008B0BDE8F081006838
:100770000AF03CF9002008B0BDE8F081A368002B26
:1007800064D1049A136F002B14BF6C2368231344A5
:100790005D68DFE7B268B046C369002703927168FD
:1007A0008269029158F804090095616901902069F5
:1007B00006F0B6F958F8040F05F0A0F9F369A2693C
:1007C00021696069D21A1944384402F0A1FDF36925
:1007D000A2692169E069D21A1944C01B02F098FD90
:1007E000F369E26961692069D21A1944384402F058
:1007F00089FFA069F369E269C01B61690137D21AF8
:10080000194402F07FFF022FD4D1B06805F076F9C9
:10081000F16922696569901CE3690A445B1A2944FD
:10082000013A02F0C1FFF169A0696569E369821EBE
:10083000401A5B1A2944013002F0B6FFF56906E759
:10084000012339E704A802F051F81FE7049BDD6E8D
:1008500080E700BFA4F601082DE9F047466886B09E
:100860000546304601F07EFFC36D0090D0F8884009
:10087000D0F88070D0F86880B0F87C90002B64D0FD
:10088000D3F800A0684602F031F814B909E02468F2
:100890003CB16368284698470028F8D006B0BDE808
:1008A000F0872B68172B00F0A5801DDC0F2B00F0C4
:1008B0008D807DDC0B2B00F0BF800D2B0AD119F051
:1008C000080F07D1EB68DB6823B11B7A13B1304600
:1008D00009F0C4FF3046294608F09EF90028DDD013
:1008E000284608F013FCD9E7262B75D02FDC1E2BE9
:1008F00000F0AE80202BEDD1EC68002CEAD0314620
:1009000060680BF025F8002800F0BC80304601F04C
:1009100029FFB0F87C3002460190180740F125818C
:1009200001A801F0E3FF314660680AF0FFFF0028EC
:10093000D0D0304601F016FF6268034601A801934B
:10094000C3F8802001F0D2FFC4E79A469AE72A2B29
:1009500065D0B3F5107FBDD106AC3046D5F80C801C
:1009600001F000FFB0F87C7044F8140D204601F04F
:10097000BDFFEB68002B91D098F80830002B00F0F9
:10098000A780380740F1B380304608F095FA07F4A5
:100990008873B3F5887F81D107F080039BB2002B69
:1009A0007FF47CAF41463046052209F005FF75E72C
:1009B000112B22D0142B8DD1304601A900F07CFBE5
:1009C00002ABEA6803CB1060516067E7BAF1000F31
:1009D00080D03046D0477DE7EB68022B7FF45EAFD6
:1009E000272206A9A86841F8142D039604930BF05A
:1009F000D5F853E7C5F80C8050E7EC68304601F0B5
:100A0000B1FE01902389012B05D1B0F87C3043F46D
:100A10008073A0F87C3001A801F068FF5AE73046E7
:100A200001F0A0FEEB680090002B64D0C0F8843089
:100A3000684601F05BFF31E7304601F093FE034664
:100A40007030009301F080FC684601F04FFF41E7F1
:100A5000EC68012C53D0002E3FF420AF304601F05B
:100A600081FEB0F87C30024601901C0706D523F0C9
:100A700008033046A2F87C3009F03EFA01A801F0E4
:100A800035FF0BE7304601F06DFEB0F87C300246D2
:100A90000190190706D523F008033046A2F87C30F0
:100AA00009F02AFA01A801F021FF314620680AF076
:100AB0003DFF00283FF40EAF304601F053FE2268A0
:100AC000034601A80193C3F8802001F00FFF01E75E
:100AD000304601F047FE03462046B3F87C200193E0
:100AE00022F48072A3F87C2001F000FFD6E63046A5
:100AF00009F0B4FE48E7D0F88430EB6098E7384658
:100B000009F074FC00B3384609F0A8FE384609F035
:100B1000D3F890B926B9002F7FF4C0AEEF60BDE6E0
:100B2000304601F01FFEB0F87C30024601901907F4
:100B300023D501A801F0DAFEEDE72146384608F09A
:100B40004DF9002EE7D0EBE7404609F0D9FE074605
:100B5000304601F007FE03466846C3F880700093F4
:100B600001F0C4FE002ED6D0DAE743F00803304689
:100B7000A2F87C3009F0C0F9D2E643F00803304611
:100B8000A2F87C3009F0B8F9D3E700BF2DE9F04FA7
:100B900004468DB04FF480564B4F0091A569B0F9D3
:100BA0000C106035B0F90A001944B4F91030104443
:100BB000B4F90E20039502970196B4F812A0B4F987
:100BC0000860D4F804B008F0B5F9054618B928460D
:100BD0000DB0BDE8F08F01F0C5FDDFF8F4903146AF
:100BE0000CAE3022049008F011F956F8207DCE4664
:100BF0004FF0000807F13404BEE80F000FC4BEE850
:100C00000F000FC49EE80300169B84E803007B6678
:100C10003046D9F8283041F28274A7F87CA0FB65F1
:100C2000C7F88080C7F86C80C7F8888001F05EFE46
:100C300007A92846254F00F03FFABDF922E0BDF98B
:100C40002010BDF92420BDF926300846521A01941F
:100C5000CEEB030371460132CDF80C8001330095D1
:100C6000029708F067F9D9F82830044628465B68EF
:100C70009847284601F076FD034630469C6604936B
:100C800001F034FE284608F08DFB284601F06AFD8D
:100C9000034605A81A6F0593069201F027FE5946F0
:100CA00006A806F02DFB002891D0284601F05AFD39
:100CB000069A034605A81A67059301F017FE284611
:100CC00009F01AF983E700BF59080008D912000893
:100CD000D80000202DE9F041044690B0006800F0F3
:100CE000D5F9B04B6668A3F12C05002808BF1D4656
:100CF0001C2E00F2F780DFE816F02200F500F50068
:100D0000F500F5003500F500F500F500F500F500FB
:100D10005100F500F500FA00F500F500F5000E01B0
:100D2000F500F50048014A014C014E01F500F500BF
:100D3000F5001D006E69304610B0BDE8F0812068F6
:100D400001F010FD034610A8B3F85A2040F82C3DDE
:100D500042F00C02A3F85A2001F0C8FD206809F007
:100D600045FEE8E72A690026B4F910300192B4F98B
:100D700014701846EA68B4F918503946B4F91C40A2
:100D8000ADF81C30009223462A46ADF81E70ADF82F
:100D90002050ADF8224002F0EBF9CCE723681C228A
:100DA00018460892079301F0DDFC034607A8059357
:100DB0001B6D9847064605A801F098FD012E40F3EB
:100DC0002781A9683346626902916868A169019028
:100DD0002F682069009705F0A7FD2769A3693744AC
:100DE000C6EB0308286804F089FE4246394660696C
:100DF00002F08EFA686804F081FE60694246394666
:100E0000013002F085FA6B6A022B00F3F4802A6A43
:100E1000964217DA6769012E206907F1020840F34C
:100E20002A810244374430444146013A3B4602F0AD
:100E3000BBFCA069821B3B46EF694146C01B0130E9
:100E400002F0B2FC012E40F3138163691E44E7698E
:100E50002868013F04F052FE314620693A4602F00C
:100E600051FC3A463146A06902F04CFCE7696868DB
:100E700004F044FE023F206931463A46013002F058
:100E800041FCA0693A463146013802F03BFCEB696F
:100E9000022B40F38280AB6AE769022BA868CCBFC3
:100EA000FF1A023F04F02AFEEA69022A00F39A8040
:100EB0002B6A022B00F38C80286804F01FFEA269C5
:100EC0002169E06902F024FA686804F017FEA2695B
:100ED0002169E069013A0131013802F019FAAF6A7B
:100EE000022F61DC0026304610B0BDE8F08104F12D
:100EF00014012769A8680026ADF81C700EC9ADF86A
:100F00001E10ADF82020ADF8223004F0F7FD07A840
:100F100002F06EFC0FE7298B2269A3690A44656918
:100F20005B1AE1692068ADF82030ADF81C20ADF8FF
:100F30001E50ADF8221001F015FC036F0590FBB1B7
:100F4000022004F021FE059AB2F87C30C3F3C003FE
:100F50000E3302EB8303986804F0D0FD059B586BB9
:100F600004F0D0FD059B186F01F0FCFB059B07A961
:100F70000690B3F95A2002F0D7F806A801F0B6FCA3
:100F800005A8002601F0B2FCD5E6AE6AD3E6EE690C
:100F9000D1E62E6ACFE66E6ACDE62B6A022B8BDD98
:100FA00079E700BF00020020D4F81C800026A26967
:100FB0002169A868951E8C1C04F0A0FDC7EB0801F0
:100FC0002A462046A8F10203013102F0EDFBB2E609
:100FD000A0693B46EF693146821EC01B013002F01A
:100FE000E3FB69E720693B46314602440230013A9F
:100FF00002F0DAFB5CE7A86804F080FD636938461C
:101000006F6A991C42463B44013B02F0CDFB19E755
:10101000286804F073FD2269EB69114660691A447F
:10102000013A02F075F9A369E9691A466069591A2B
:10103000013102F06DF9676920690137394602F024
:10104000FBFA3946A06902F0F7FA686804F056FD29
:1010500020693946013002F0EFFAA06939460138BB
:1010600002F0EAFA2769A3690237A3F10208B9E698
:1010700066690236EBE60244434602304146013AD5
:10108000474602F091FBA069821ED4E610B582B0FB
:1010900018B90446204602B010BD01F063FBB0F859
:1010A0007C4002ABC4F3C00443F8040D184601F0C1
:1010B0001DFC204602B010BD2DE9F04F89B0074657
:1010C0000D4601F04FFB034601213846DA6D0593CA
:1010D00094682368984723680321804638469847D8
:1010E00023680221834638469847236800218246B8
:1010F00038469847814605980AF03EF80646059816
:101100000AF042F803460598448E04F02004A4B285
:10111000B4B1B0F95420B0F95840002A4AD091B285
:10112000C06E0C44A4B280B103910292019308F006
:1011300029FB019B0FFA80FC029A80B2039905E01B
:1011400021462246C06E0028EED184461FFA89FE51
:10115000013E013B0FFA88F8CBEB060674440EF112
:10116000FF3ECAEB030336B2044471446B812A800C
:1011700005A8A5F802C0EC8069822E812E82A5F810
:101180000480A5F80C80A5F80E9001F0AFFB08AA2A
:10119000B5F910403846B5F90C3006A942F8044DAF
:1011A000069300F04BF8069A079BAA812B8209B0A0
:1011B000BDE8F08F406B019302F006FC821C019B9E
:1011C000059891B212B20C44A4B2BBE708B5438EA5
:1011D00003F020039BB24BB10246B0F9540000B1BA
:1011E00008BD506B02F0F0FB023008BD184608BD88
:1011F00070B58AB00C46064601F0B4FA0AABC26D6F
:1012000043F8280D1846956801F070FB0196032CF1
:1012100005D8DFE804F00F0C0902172302936B686E
:1012200001A898470AB070BD15230293F7E716236B
:101230000293F4E718230293F1E700BF2DE9F0438E
:1012400083B088460446914601F08CFA034602A812
:10125000DA6D40F8083D9568B3F90070B3F90260A3
:1012600001F044FB2B6820460021984705462046A4
:1012700008F026FA68B3044607E001A801F036FB3F
:10128000204608F041FA044618B3204601F06AFAF5
:10129000B0F9023001909B1B9D42EED1836A1B0680
:1012A0000BD5B0F90030D9F80020DB1B934203F1D5
:1012B000FF33E2DCC9F80030DFE7B0F90430D8F8DA
:1012C0000020DB1B934203F10103A8BFC8F80030E4
:1012D000D3E703B0BDE8F0832DE9F043456887B05C
:1012E0000446284608F01AFA074601F03BFA03467E
:1012F00006A85E6E40F8143DD3F84880D3F880907D
:1013000001F0F4FA23680E3B232B3FD8DFE803F00B
:1013100035463E3E3E3E12123E123E3E3E3E3E3E72
:1013200018243E3E2B3E3E3E3E3E3E3E3E3E3E3E30
:101330003E3E3E30204607F0E9FE07B0BDE8F083B0
:10134000E368002BF9D0B9F1000F3BD04D4539D0FF
:10135000484609F083FAF0E72146384607F05CFC7E
:1013600007B0BDE8F083C4F80C8007B0BDE8F08397
:101370000023E36007B0BDE8F083E3685A68002A01
:1013800004DD1B68092B1DD00A2B1FD0002ED1D0E5
:1013900020466760B04707B0BDE8F0836FF0704348
:1013A000984504D0404607F0D9F901F071FC002EB1
:1013B000C3D002AF94E80F0087E80F0038460395CA
:1013C000B047BAE7284609F09BFAB6E7284609F085
:1013D000DBFAB2E72DE9F04F161A5D1A85B09E468A
:1013E00056EA0503DDF838B079D086EAE673074699
:1013F00085EAE5748946A3EBE673A4EBE5749C42A9
:101400002FDC1C460023A642019338D039464FF00A
:10141000FF336D42174674420A46F1460393DBF8E8
:10142000001095BBDFF80C830846019BD8F800E05C
:10143000002B00F0D1809EF81A30002B00F0C48100
:10144000002CC0F2C881AA46B64E7246013B451C2C
:10145000032B00F23481DFE813F04C014101580105
:1014600021013B4630462E4611464F469946A6423C
:101470004FF00103724605468E460193C6D1012303
:10148000DBF800100393002DCCD0002CDFF8A482F1
:101490002646D8F80000B8BF661C002D4FEA660645
:1014A000827EB8BF7642FAB9002C15DB019B002B77
:1014B00000F051819246034601E0D8F800305B6E9F
:1014C0000AEB07010AF1010A5B6896FBF4F0484455
:1014D0002E4498475445F0DA05B0BDE8F08F05B0CA
:1014E000BDE8F04F00F07AB95A1C00F02C81002CB6
:1014F00051DBCDF808904FF0000AC14698464144B0
:10150000CBF80010827E013A032A15D8DFE802F0FA
:1015100055492B02844B4FEAE17E83FB0132CEEB2F
:10152000A20202EB4202A1EBC2020B2A12DD22F060
:101530000402103A012A0DD9029B426E96FBF4F187
:101540001944019B002B40F0F780384652689047C1
:10155000DBF800100AF1010A01372E44544515DB6F
:10156000D9F80000CBE76F4B4FEAE17E83FB0132F5
:10157000CEEBE20202EB8202A1EB82020B2AD8DC64
:101580000AF1010A01372E445445E9DA039A434629
:10159000013200F0DE80CB1ACBF8003005B0BDE898
:1015A000F08F624A0A40002AC0F2E780012ACCBFCD
:1015B00000220122002ACDD1BEE701F1060E5C4ACD
:1015C0000EEA0202002AC0F2DD800B2ACCBF002204
:1015D0000122002ABED1AFE79EF81A30002B00F09E
:1015E000EA80002CC0F2F780DDF804A072464E4E6F
:1015F000013B451C032B13D8DFE803F043372102DE
:1016000086FB0031C317C3EBA10303EB4303A0EB3D
:10161000C3030B2B0ADD23F00403103B012B05D978
:10162000536E494607EB0A005B6898470AF1010AC6
:10163000544514DBD8F800202846937ED8E7394B70
:1016400083FB0031C317C3EBE10303EB8303A0EB80
:1016500083030B2BE1DC0AF1010A5445EADA691E27
:10166000CBF8001005B0BDE8F08F304B0340002BE5
:10167000C0F29780012BCCBF00230123002BD5D1D2
:10168000CEE7691D2A4B0B40002BC0F28F800B2B3D
:10169000CCBF00230123002BC8D1C1E7224B83FB21
:1016A0000031C317C3EBA10303EB4303A0EBC30358
:1016B0000B2B0ADD23F00403103B012B05D9536EDD
:1016C0000AEB070148465B6898470AF1010A54454E
:1016D000C5DBD8F800202846937EB7E6134B0340BD
:1016E000002B54DB012BCCBF00230123002BECD1BA
:1016F000E5E7691D0E4B0B40002B4DDB0B2BCCBFE0
:1017000000230123002BE0D1D9E786FB0031C3176A
:10171000C3EBE10303EB8303A0EB83030B2BCBDCD5
:10172000D3E700BF67666666ABAAAA2A03000080FB
:101730000F00008084000020084652683946904718
:10174000DBF8001006E72144002CCBF80010BFF6B0
:10175000D0AE21441FE79A4601E0D8F80000436E5E
:101760000AEB07000AF1010A5B6896FBF4F14944B1
:101770002E4498475445F0DAAEE6013A62F003028F
:10178000013213E7013A62F00F0201321DE7013B1B
:1017900063F003030133A5E7013B63F00F0301335B
:1017A000ACE7013B63F00303013363E7013B63F004
:1017B0000F0301336BE7DEF86430494638461B6897
:1017C00005B0BDE8F04F18473946484605B0BDE8BA
:1017D000F04F06F063BB0D4641E700BF064B1A68A9
:1017E000137E012B05D05A1E48BF1A46521000F036
:1017F00005B8536E5B681847840000202DE9F04F50
:1018000040F2C3231546344A85B003FB05F3DFF8E5
:10181000CCA00190002D82FB03284FEAE373B4BFF4
:101820006C1C2C46C3EBA818019B05FB05FB8946E5
:10183000EE185F1BDAF8003008F101080BEB6404C6
:1018400032465B6E384600941B689847B8F1000F2B
:101850003FDD019B01241A19013B029203931AE018
:10186000013D019BEE185F1BDAF8003009EB040123
:10187000324638465B6E05FB05FB1B689847DAF875
:101880000030C4EB090101345B6E324638461B68F8
:101890009847A0451DDB04FB04BB009B5B45E3DAD6
:1018A000A845DDDA029A09EB0501DAF80030161BCB
:1018B000039A5B6E171930461B683A469847DAF868
:1018C00000303A4630465B6EC5EB09011B6898470D
:1018D000C6E705B0BDE8F08FD34D6210840000204C
:1018E00000292DE9F04F87B040F3E4821E4C0546F5
:1018F00000EB810E274643F6FF74B5F9026004350C
:10190000B442A8BF3446B742B8BF3746AE45F4D15B
:101910000497164D2D686D6975B1B5F90660049F81
:10192000F61AB5F90250B742A5EB0305A8BF374632
:10193000AC42B8BF2C460497049DAC4200F36982C8
:10194000934606464D1EDFF828908A4605930022EE
:10195000074B92451A6040F35782059BCDF80CB0B7
:1019600023440293EBE000BF01C0FFFF840000208E
:1019700040C90120A64500F0DE8001DBA04205DD64
:10198000A042C0F2D880A64500F3D580704500F390
:101990004382A645C0F2CF80A04200F3CC8036F946
:1019A00022B0BCF90030CBEB0302C8EB0403C8EB58
:1019B0000E0E03FB02F3002B40F3588203EB6E0183
:1019C000DF4B1B680B2B00F3B680002B91FBFEF165
:1019D00001EB0B02019240F33682581E1146420081
:1019E00009EB020EBEF904C0614500F34F8209EB1A
:1019F0004308A8F804C0002800F02582981E4FEA8A
:101A0000400B09EB0B0CBCF90480414500F38C80C2
:101A1000AEF80480002800F01682D81E420009EBC0
:101A20000208B8F904E0714500F32E82ACF804E036
:101A3000002800F00882A3F1040C4FEA4C0E09EBD9
:101A40000E00B0F9040081426EDCA8F80400BCF17D
:101A5000000F00F0F881581FB949420001EB02085D
:101A60000199B8F904B0594500F31882CE44AEF894
:101A700004B0002800F0E781981F4FEA400B09EB03
:101A80000B0EBEF904C061454EDCA8F804C0002866
:101A900000F0D981D81F420009EB020CBCF9048088
:101AA000414500F3F181AEF80480002800F0CB81BD
:101AB000A3F108004FEA400809EB080EBEF904B094
:101AC000594531DCACF804B0002800F0BC81A3F12A
:101AD0000900420009EB020CBCF904C0614500F3A7
:101AE000DB81AEF804C0002800F0AD81A3F10A004C
:101AF00093494FEA400C01EB0C0E0199BEF90480AA
:101B0000414511DC4A44A2F80480002800F09B8182
:101B1000A3F10B00420009EB0200B0F9040081427E
:101B200000F3B881AEF8040085480133BDF8041015
:101B3000024403609180BA453A4640F3EF80AA42DE
:101B400002F1010706EB82011346ACBF4FF0000C17
:101B50004FEA870CB1F90200B444A0428046BCF9B8
:101B600002E07FF407AFA64500F06F81002DE2DDB3
:101B700000215BB1013B013106EB8300B0F90200AB
:101B8000A0420BD1A942D6D0002BF3D12B46013174
:101B900006EB8300B0F90200A042F3D0001BC4EBB7
:101BA0000E0E36F9222090EA0E0F40F14281644B6E
:101BB0001B680B2BBFDC002B40F35D81581E4100DE
:101BC00009EB010CBCF904E0724500F36A8109EBF2
:101BD0004308A8F804E0002800F04D81981E4FEA61
:101BE000400809EB080EBEF904B05A4500F38D8099
:101BF000ACF804B0002800F03E81D81E410009EB8B
:101C0000010CBCF904C0624500F35281AEF804C077
:101C1000002800F03081A3F1040849484FEA480B3E
:101C200000EB0B0EBEF904C062456EDC4944A1F81E
:101C300004C0B8F1000F00F01E81581F410009EBED
:101C4000010CBCF90480424500F32281AEF8048007
:101C5000002800F01081981F4FEA400B09EB0B0E93
:101C6000BEF90480424550DCACF80480002800F046
:101C70000281D81F410009EB0108B8F904C0624590
:101C800000F30681AEF804C0002800F0F480A3F150
:101C9000080C4FEA4C0E09EB0E00B0F9040082422A
:101CA00033DCA8F80400BCF1000F00F0E480A3F1DD
:101CB000090041000190224800EB0108B8F904B086
:101CC0005A4500F3F080CE440198AEF804B00028E5
:101CD00000F0D180A3F10A004FEA400C09EB0C0E92
:101CE000BEF904B05A4510DCA8F804B0002800F092
:101CF000C280A3F10B01490009EB0100B0F9040017
:101D0000824200F3D380AEF804000D480133BA4597
:101D1000014403608A803A463FF711AF084BDDF873
:101D20000CB01B68002B6FDD012BB9F904006BD0E0
:101D3000044B5844B9F906201B68029F04E000BF19
:101D400040C90120840000205A445B6E39461B685C
:101D50009847D9F80030022B56DD032BB9F908005B
:101D600052D0574B5844B9F90A2039461B685A4497
:101D70005B6E1B689847D9F80030042B44DD052BB7
:101D8000B9F90C0040D04E4B5844B9F90E203946F1
:101D90001B685A445B6E1B689847D9F80030062BC5
:101DA00032DD072BB9F910002ED0454B5844B9F954
:101DB000122039461B685A445B6E1B689847D9F855
:101DC0000030082B20DD3F4A092BB2F914001BD04C
:101DD0003B4B5844B9F9162039461B685A445B6E90
:101DE0001B689847D9F800300A2B0DDD0B2BB9F989
:101DF000180009D0324B3946B9F91A2058441B68EB
:101E00005A445B6E1B6898470134049BA342BFF69B
:101E10009EAD07B0BDE8F08FA042FFF68CAEA645A0
:101E20003FF789AEF046BCF900B036F9223086465D
:101E3000B9E5234B03991B680A4402995B6E10466F
:101E40001B68984777E600226EE6BCF900300398DD
:101E500036F9221001441818194B81421B680CDB1B
:101E60005B6E0A4602991B68984764E64FEA6E016A
:101E70000139591AA4E5002147E75B6E024608467E
:101E800002991B68984756E65A464DE65A004BE6BB
:101E900059463AE7624647E6424645E64FEA4C0273
:101EA00042E6590031E74FEA4C012EE761462CE744
:101EB00041462AE7044C049443F6FF7429E500BF29
:101EC0008400002040C9012001C0FFFF0D4B10B568
:101ED000186806F043FC0C4B0C4C186806F078FCB4
:101EE0002368002201219A8510465A85197606F04A
:101EF000A1FC074A2368126802B1DA6100229A76CF
:101F000010BD00BF800000207C0000208400002065
:101F100078000020014B83E80300704720C70120B0
:101F2000014B83E80300704728C70120014B83E879
:101F30000300704730C70120704700BF704700BFE3
:101F40002DE9F04F5C4E8DB03368DA69B3F9225059
:101F5000D469B4F80CB0834500F29780E1898142DE
:101F6000C0F093802168CBEB000B08914FF0FF315C
:101F70000A91BBF1FF3F00F0828092F81880A27CAA
:101F8000B3F92A10B3F9249018FB02F3084607911D
:101F90001F4694F810A006F04DFCD6F800E0089912
:101FA0004346DEF838C05246099007FB0B10DEF8B6
:101FB0001CE00B97012704904946CDF814C0284631
:101FC00094F812C00297CDF80CC09EF81BC0DFF841
:101FD000E8B0CDF804C09EF81AE0CDF800E005F0B6
:101FE0007DFD0A9F7B1C25D0079941F0020006F079
:101FF00021FCDBF800100B9A43460898D1F838C052
:1020000002FB0700D1F81CE00127CDF814C00490B2
:10201000524694F812C0494602972846CDF80CC0A3
:102020009EF81BC0CDF804C09EF81AE0CDF800E081
:1020300005F054FD3368DFF88080DB695A7E1B7E33
:102040009A4215D9079B022B12D083F0040006F0A8
:10205000F1FBD8F800302846DB691F7ED97E9A7ED6
:102060005B7E07FB01910AFB02524B4405F03EFFE9
:102070009DF8240006F0DEFB3368B3F92250627C41
:1020800015445D840DB0BDE8F08FA1680029F6D03D
:102090000F88B842F3D3B1F802E08645EFD3C01BF6
:1020A0004968676880B2089701EB800731F920B072
:1020B000B7F902100A915CE784000020044B1B680A
:1020C000DB69DB6909B11A7C0A60587C704700BF84
:1020D0008400002002230B80704700BFC3699A89E7
:1020E0008A4202D8DA898A4211D2986818B10388E4
:1020F000994201D20020704742888A42FAD3C91A15
:10210000436833F82100C043C0F3C030704701205A
:10211000704700BF2DE9F04F3A4D89B02B68DA695E
:10212000B3F92A90D36943B11A88904202D35988EF
:10213000814205D29B68002BF6D109B0BDE8F08F33
:10214000841AD3F80480484608EBC40696F802B017
:1021500006F070FB8246286818F834204FF0010E14
:10216000C769D0F838C0B0F92410B0F922003B7E1E
:102170000790CDF814C07068CDF80CB00490CDF87D
:1021800008E097F81BE00798CDF804E0BF7E0097C1
:1021900005F0A4FC2B68DA69537E177EBB4223D975
:1021A000B9F1020F07931FD092F81BB001F0C8FBE2
:1021B000814601F0A9FB03F0A1FC124B18F834E0B2
:1021C0001868079BC169B0F92240CA7EB0F9241093
:1021D00020460EFB02420BFB03130BFB071105F01D
:1021E00085FE484603F08AFC504606F023FB2B6828
:1021F0007178D8695A8C807E00FB01225A8409B01C
:10220000BDE8F08F84000020114B1B6870B4DD69BD
:10221000EB6943B11A88904202D35C88844205D2AC
:102220009B68002BF6D1184670BC7047821A5E6816
:10223000AC7E06EBC2035B7813FB04F00029F3D0FD
:1022400016F8323014FB03F370BC0B60704700BF0C
:102250008400002001230B80704700BFC06950B18B
:1022600003888B4202D843888B4203D280680028BF
:10227000F6D170470120704700B9704709F06CBF74
:1022800008B900207047F8B5064609F065FF044616
:1022900038B3154D3246154F0021E8696B6B01309C
:1022A00003EBC406E86113F83400013003F834008E
:1022B00076683B6806F10800984731686A6B12F847
:1022C0003130012B01D9E86920B9013B204602F8E1
:1022D0003130F8BD0138013BE861204602F8313069
:1022E000F8BD0020F8BD00BFA0CA012028010020D1
:1022F00021F00301014B83E80300704738C7012038
:1023000000B9704770B50A4CC6000546636B33448C
:102310005968486809F072FD6368626B0021606A61
:10232000013316446360706002F83510656270BD59
:10233000A0CA012028B1034AD36B036003B15860DF
:10234000D0637047A0CA0120F8B50468054694B16F
:102350000A4EE700736B3B445968486809F04EFD2C
:102360007368726B0020716A01331744736079607F
:1023700002F83400746200232B60F8BDA0CA01206B
:1023800000292ADD2DE9F04700258A46041F134F56
:10239000A94603E0AA45C4F800901CD054F8046F85
:1023A0000135002EF6D04FEAC6087B6B43445968CE
:1023B000486809F023FD7B68796BAA457A6A03F1C6
:1023C000010388447B60C8F8042001F836907E62DF
:1023D000C4F80090E2D1BDE8F0877047A0CA0120A0
:1023E000F8B58B4E044696F82830002B2FD00334D6
:1023F000356CF26B24F003040434A54238BF254643
:1024000062B152F8043C14469D4204D114E054F8E1
:10241000043C9D4210D02468002CF8D1F368B46BC2
:102420001C4454F8041C611A0B68002B68D14B68DB
:102430009D426FDD002408E023680BB1616859609C
:10244000616801B10B60A24256D02046F8BD714BC5
:1024500001219A6886F8281058680AB982089A609B
:102460005A27102220254FF0400E37628027326411
:102470004FF48072B5644FF400751968C6F850E0E7
:102480004FF4806EB7654FF4006732664FF48052A8
:10249000B5664FF40055A1F11403C6F870E0B767B4
:1024A0004FF4804EC6F880204FF40047C6F888509D
:1024B0004FF480324FF400350344C6F890E04FF4F7
:1024C000802EC6F898704FF40027C6F8A02002228C
:1024D000C6F8A8500125B1637363C6F8B0E0326155
:1024E000F060C6F8B8705D607562756009F086FCD2
:1024F0000DF0D2FA35637AE723682046F363F8BD1E
:1025000000200FF09FFE54F8041C611A0B68002B8A
:1025100090D18CE7581BD6F8B8703D4A041DBB42D9
:102520000C4472D2D2F8B070BB426CD2D2F8A87010
:10253000BB4266D2D2F8A070BB4260D2D2F898708B
:102540009F425AD9D2F89070BB4254D2D2F88870C8
:10255000BB424ED2D2F88070BB4248D2926F9342B7
:1025600043D2376F2A4ABB423DD2976EBB4238D224
:10257000176EBB4233D2976DBB422ED2176DBB4252
:1025800029D2976CBB4224D2126C93420CD2F268CF
:102590007369521B2B44F260736110B944F8045CF8
:1025A00053E709F02BFCF9E700223768D1F808E07F
:1025B000FF1ACB683760BEF1000F01D0CEF80430AF
:1025C00013B1C3F800E0E2E706EBC202C2F844E050
:1025D000DDE70122E9E70222E7E70322E5E704223B
:1025E000E3E70522E1E70622DFE70722DDE708222D
:1025F000DBE70922D9E70A22D7E70B22D5E70C222D
:10260000D3E70D22D1E70E22CFE70F22CDE700BF9F
:10261000A0CA012038C70120F8B54A4C94F82830E8
:10262000002B3DD0D4F8BC30464A3BBBD2F8B43086
:1026300023BBD2F8AC300BBBD2F8A430F3B9D2F83C
:102640009C30DBB9D2F89430C3B9D2F88C30ABB936
:10265000D2F8843093B9D36F83B9536F73B9E36EF3
:1026600063B9536E53B9D36D43B9536D33B9D36C5A
:1026700023B9536C13B96FF00B00F8BD9B68002BA6
:10268000F9D0002201E09B6843B15968104691429D
:1026900001D90A4608469B68002BF4D10C38F8BDD6
:1026A000294B01219A6884F8281058680AB98208D1
:1026B0009A605A261022202540272662802622640E
:1026C0004FF48072A5644FF40075196827654FF4C4
:1026D0008067A6654FF4006622664FF48052A566B7
:1026E0004FF40055A1F114032767A6674FF4804704
:1026F000C4F880204FF40046C4F888504FF480326C
:102700004FF400350344C4F890704FF48027C4F8A8
:1027100098604FF40026C4F8A0200222C4F8A85004
:102720000125A16363632261E060C4F8B070C4F85E
:10273000B8605D606562656009F060FB0DF0ACF942
:1027400025636FE7A0CA012038C7012030B1044BD0
:102750005B6B03EBC000436858680C38704700BFE0
:10276000A0CA0120084AD169536B013110B4D1616C
:1027700003EBC00413F83020013203F83020606806
:102780005DF8044B08307047A0CA0120F8B5544CDE
:1027900094F82830002B51D0D4F8BC30504A83BB79
:1027A000D2F8B4306BBBD2F8AC3053BBD2F8A43003
:1027B0003BBBD2F89C3023BBD2F894300BBBD2F891
:1027C0008C30F3B9D2F88430DBB9D36FCBB9536F07
:1027D000BBB9E36EABB9536E9BB9D36D8BB9536D77
:1027E0007BB9D36C6BB9536C5BB96FF00B033D498C
:1027F000DA1781FB0313C2EB6313206A00FB03F0BB
:10280000F8BD9B68002BF8D0002201E09B6843B123
:1028100059681046914201D90A4608469B68002B28
:10282000F4D10C38B0F5800F0346E0D8226A2D4B66
:1028300002FB00F0A3FB00235809F8BD2A4B01213D
:102840009A6884F8281058680AB982089A605A264B
:102850001022202540272662802622644FF48072B1
:10286000A5644FF40075196827654FF48067A66565
:102870004FF4006622664FF48052A5664FF400556F
:10288000A1F114032767A6674FF48047C4F880209E
:102890004FF40046C4F888504FF480324FF40035AE
:1028A0000344C4F890704FF48027C4F898604FF444
:1028B0000026C4F8A0200222C4F8A8500125A16374
:1028C00063632261E060C4F8B070C4F8B8605D6012
:1028D0006562656009F092FA0DF0DEF825635BE74A
:1028E000A0CA01201F85EB5138C7012003680B4A9D
:1028F00030B4044653F8085C506B10F83530012BA7
:1029000003D9D16909B10139D1610022013B00F835
:1029100035301046226030BC704700BFA0CA01208D
:10292000034B5B6B03EBC00040680830704700BF8F
:10293000A0CA012010B584B00C46064B114601AA6E
:10294000009020460193CDF80CD00AF0A5F904B010
:1029500010BD00BF9129000800B583B000F112033B
:1029600002A840F8043D04F0A1FC03B05DF804FBAC
:1029700000B583B000F1160302A840F8043D04F04E
:1029800095FC0028B8BF404203B05DF804FB00BFCF
:1029900010B40468104623445DF8044B0B60704784
:1029A0002DE9F043044683B00020894690461E4638
:1029B0006060034625686946A0683622A847362825
:1029C00003D0012003B0BDE8F08363686846363366
:1029D000636004F065FC009B054668460C33009379
:1029E00004F064FC0746684604F060FCC9F8000087
:1029F000684604F05BFC009BC8F8000068460233A0
:102A0000009304F04DFC3080684604F04FFC009BBE
:102A10000B9A0C3310606846009304F047FC33882F
:102A2000013B1F2BCDD801A252F823F0F72A000852
:102A3000C3290008C3290008EF2A0008C329000899
:102A4000C3290008C3290008AD2A0008C3290008CB
:102A5000C3290008C3290008C3290008C3290008A6
:102A6000C3290008C3290008FF2A0008C329000859
:102A7000C3290008C3290008C3290008C329000886
:102A8000C3290008C3290008FF2A0008C329000839
:102A9000C3290008C3290008C3290008C329000866
:102AA000C3290008C3290008FF2A00084FF48073D7
:102AB0000A9A136008B10A9B18600B9B1B68032BD2
:102AC00021D060682838384460600A9B1B68B3F5E1
:102AD000807F3FF776AF44F642539D427FF471AF5B
:102AE0000B9B1868032894BF002001206AE710237D
:102AF0000A9A1360DEE702230A9A1360DAE70023DA
:102B00000A9A1360D9E726681022636801A9A068B1
:102B1000B047102805D06368A3F1380038446060DE
:102B2000D3E7636801A8254E1033636004F0BEFB51
:102B3000306001A804F0BAFB706001A804F0B6FB95
:102B400000223368F260DA07B06007D401225B0824
:102B50001146013213F0010FF9D0F16001225B0838
:102B60009646013213F00101F9D17368C6F818E0F6
:102B7000DA07316107D401225B081146013213F0F4
:102B8000010FF9D0316101225B089646013213F042
:102B90000101F9D1C307C6F81CE0716106D4012315
:102BA00040081A460133C107FAD572610123400873
:102BB0001A460133C107FAD43262ACE7ECC80120EF
:102BC0002DE9F041064610461446884600F0C0FE46
:102BD000C8B9A700184D3B1905EB8303DA68B24268
:102BE00004D11B69434501D1BDE8F0813B1905EBD8
:102BF00083035869B0B93C4405EB8404E660C4F82B
:102C00001080BDE8F0810C4B04EB840403EB8404DA
:102C100063689A685968C2EB0802711ABDE8F0410E
:102C200002F08EBF5B689A685968C2EB0802711A9D
:102C300002F01CFCDFE700BF38CA0120C3B2CAB2F1
:102C40009A1A92B210B414B2002C1EDBC1F3072200
:102C5000C0F307239B1A9BB21AB2002A12DB090C9D
:102C600002FB02F2C1EB104104FB042089B20CB25A
:102C7000002C01DA49420CB2A1B25DF8044B01FB11
:102C8000010070475B421AB2E9E7524214B2DDE735
:102C900000212DE9F041084682B000F0ABFE04208F
:102CA00005F0C8FD144B154F43F6FF761B698046AF
:102CB0003D463446DA6C68461B6D174416441D4485
:102CC0001C44ADF80070ADF80460ADF80250ADF8EA
:102CD000064008F061FA48B1234632462946384694
:102CE00005F004F908F0EAF80028F5D1404605F0AF
:102CF000A1FD02B0BDE8F0817400002001C0FFFF1B
:102D00002DE9F041074682B0042016461C460D46C8
:102D100005F090FD124B804668461B69DA6C1B6D0E
:102D2000174416441D441C44ADF80070ADF804600F
:102D3000ADF80250ADF8064008F02EFA48B123462F
:102D400032462946384605F0D1F808F0B7F8002891
:102D5000F5D1404605F06EFD02B0BDE8F08100BF40
:102D6000740000202DE9F047044682B00D46164657
:102D7000002B37D09A46009651460B9B204626687A
:102D80000A9AB047074618B9384602B0BDE8F0873E
:102D900006F06EFC618A8046384606F01FF8013D59
:102DA000384607F081FE404607F07EFE002D1DDD0F
:102DB0004FF0000903E007F077FE013D16D054F80C
:102DC0001C6F0023CDF80090414620461A46B047BC
:102DD00006460028EFD1384606F0C8F9304602B062
:102DE000BDE8F08706F052FC8246C4E740461D214C
:102DF00007F0ACFCBAF1FF3FC6D006F06BFC40B95F
:102E0000BA450CD0384607F07BFD3846BDE70028B0
:102E1000F8D0FFF785FD80698742F8D1B4E75046C6
:102E2000B3E700BF012B17DC2DE9F04107461C205A
:102E300090460D461E46FFF7D3FA0446D0B16DB159
:102E4000056100232046A661A4F81480E760236092
:102E50006360A360BDE8F08100207047074B53F822
:102E600026200AB9EDE71A461368002BFBD1136937
:102E70002361E6E70020BDE8F08100BF78CB0120A8
:102E8000012B3BDC2DE9F84381461C2090460F4680
:102E90001E46FFF7A5FA054600287FD0414A002FBD
:102EA00031D00023DFF804E152F8264003609EF899
:102EB000001007618E428661A0F81480C0F80C9063
:102EC0004360836002DB731C8EF80030002C5DD001
:102ED00021464C68002CFBD1D9F80000CB681B6858
:102EE00083422CDD09680029F8D148B92E4B1636EB
:102EF00028461A6842F82650BDE8F883002070473B
:102F00002846BDE8F88352F82610002930D008463C
:102F100000E018460368002BFBD10069DFF88CE065
:102F20002B6028619EF80000AE618642A5F81480EF
:102F3000C5F80C906B60AB60CBDB0C46C3E70AD0E6
:102F40004B6843B31D606B608D4214BF0B4600237A
:102F50004D602B60C9E7B8F1010FF1D104E0DC68E6
:102F6000194623688342EBDB0B68002BF7D1E7E7B8
:102F7000DFF838E001609EF8003086619E42A0F8DC
:102F80001480C0F80C9041608160D6DA42F8265077
:102F9000D9F80000A9E742F82650D5E70020BDE89F
:102FA000F88300BF78CB01208400002071CB012082
:102FB000FFF7C0B900283DD070B48469012C03DD4F
:102FC0000123184670BC70471F4B1A78944221DACF
:102FD0001E4D55F824300BB932E013465A68002ACA
:102FE000FBD1C268116802E01B68002BE8D0DA68E8
:102FF00012689142F8DB10D05A68F2B1106042605A
:10300000984214BF1A4600225860002302601846F6
:1030100070BC7047621C1A70DAE7828A012AEBD111
:1030200004E0D668134632689142E5DC1A68002A4B
:10303000F7D1E1E701231846704745F82400DFE7A0
:1030400045F82400BDE700BF71CB012078CB0120FB
:103050000F4A816952F8213098420AD042680AB179
:1030600003681360036803B15A6000230360436080
:103070007047036842F821302BB100225A60426841
:10308000002AEED1F0E74268002AEAD1EDE700BF5E
:1030900078CB012001280EDC084B53F8200058B1F2
:1030A000C3681B681BB908E0C3681B6823B10068CC
:1030B0000028F9D1704700207047704778CB012075
:1030C00000B970472DE9F04182B01E4615460C4606
:1030D0000746FFF747FB02AB026843F8040D1846AA
:1030E000D2F80080FFF702FC33462A4621463846D4
:1030F000C04702B0BDE8F08170B50546094E10F03A
:10310000F5FE054407E000F021FB3068A042A8BFAF
:10311000204610F0E1FE10F0E9FE2C1A002CF2DC43
:1031200070BD00BF9000002000B3F0B5054683B02D
:1031300016460C46C1B1084607F0AAFC074638B14E
:1031400002462146684603F08FFF684607F0A0FC60
:1031500032462146284647F6FF7303F0E1F9384628
:1031600007F096FC03B0F0BD0F46F1E7704700BFD3
:103170002DE9F04F654C91B02468E56C246D28185A
:10318000AA186118E318064607900EA808920D4683
:10319000029101931C46ADF83860ADF83C20ADF8C3
:1031A0003A10ADF83E3007F0F7FF002800F09580A8
:1031B000C5EB040B1A999DF86820C1F30724BBF1F5
:1031C000000F1B995B46B8BF0BF101030BFB02FE1E
:1031D000C1F307271A995B109DF86CC0C1F3074033
:1031E0001B9903EB0E05C1F307461A990A95090EC0
:1031F0000BFB04353C1B0B9503940BFB0034301A7E
:103200000BFB01335E460C940D931B9B0490C1EBAA
:1032100013630593C2EB0C03069300F091FB1A9B1A
:103220001B9A0990934267D0002E52D0029D019ABA
:10323000954259DC0AAF86464FF0010B97E88007AC
:1032400006E00BF1010B0135019BA646AB422FDBDB
:1032500070469AFBF6F499FBF6F197FBF6F398FBB0
:10326000F6FC2206059C43EA0C23A24442EA0144F0
:10327000049A1C43029B9144069AAB421744039A5A
:103280009044E0DA7445DCD005F0A2FABBF1010FFE
:10329000CBEB050105F1FF33089A079820D004F025
:1032A00025FE0135019B4FF0010BA646AB42CFDA5C
:1032B000204605F08DFABBF1010F17D0019B089A4B
:1032C000CBEB03010798013104F010FE099805F0DB
:1032D0007FFA07F0F3FD00289FD111B0BDE8F08F11
:1032E000691E04F081FDAEE705F072FA089A0199B3
:1032F000079804F079FDE9E7184605F069FA019BA3
:10330000089A0299079804F0F1FDDFE78400002095
:10331000F0B5114F83B03B681D6DDC6C0544684609
:10332000661814442BB2ADF80060ADF80440ADF857
:103330000230ADF8063007F02FFF50B13B6822464F
:10334000294630465B6E1B68984707F0B7FD00289A
:10335000F4D103B0F0BD00BF840000202DE9F04F90
:10336000B34E8FB08046002034688A46174699468F
:10337000E56C246D07F010FF002800F0208104EBBD
:10338000090204EB0A0305EB0801E81903939B1AF1
:10339000C0EB01090291079319465B420592049024
:1033A00049EA010813EA210338BF0B46A14F0693EF
:1033B00004E007F083FD002800F00181326800235B
:1033C000117E0993012900F02B81B8F1000FF0D094
:1033D000B9F1000F01F1FF31C0F21D814C4602220C
:1033E000079833EA200328BF13460698844280F2E8
:1033F000ED8043F0040322460446DBB2601000EB8C
:10340000822292FBF4F29411C2F3830207EB440090
:10341000C2F11005B0F92400102D05FB00F006D014
:10342000844D05EB4404B4F9264002FB040010F17E
:10343000080448BF00F1170458074FEA241448BF96
:10344000C4F58064DA0748BFC4F500649B0748BF31
:10345000C4F5805404F5006304F58064C3F30B03E2
:10346000B3F5006F40F3B080A3F500630122B3F51C
:10347000806FC8BFC3F5006303F03F059B11C5F122
:10348000400537F81300ADB2402D05FB00F008D021
:10349000102B06D00133C5F1400537F8133005FB7A
:1034A00003002030800902B14042C4F30B0400FB4A
:1034B00001F0B4F5006F40F38580A4F500640122AB
:1034C000B4F5806FC8BFC4F5006404F03F05A411D3
:1034D000C5F1400537F81430ADB2402D05FB03F3BC
:1034E00008D0102C06D00134C5F1400537F814403F
:1034F00005FB043320339B0902B15B42002803FB28
:1035000001F17BDB00F5007000294FEAA0207DDB94
:1035100001F50071891200285ADD451C00294FEA87
:1035200060004FEA65055FDD4C1C49106410BDF872
:1035300008A0ADB280B2BDF810B00AEB050E89B29A
:10354000BDF80CC0C0EB0A0AA4B2ADF828E0BDF883
:1035500014E00023C0EB0B005D44ADF82CA00CEB95
:10356000040BC1EB0E0AC1EB0C0CA6441A46ADF8D5
:10357000300004210AA8ADF82AB0ADF82EC0ADF88D
:103580003450ADF832A0ADF836E0FEF7A9F9336853
:103590005B7E002B7FF40DAF03990298FEF71EF9B6
:1035A000234B1B685B7E002B7FF403AF05990498C7
:1035B000FEF714F907F082FC00287FF4FFAE0FB08D
:1035C000BDE8F08F00227BE7002250E7024615E7B6
:1035D0000546B8BF451C431E4FEA650548BF034674
:1035E00000294FEA63009FDC0C46B8BF4C1C4B1E01
:1035F0004FEA640448BF0B46591098E7C0F50070C5
:1036000000294FEAA020C0F1000081DAC1F5007165
:10361000891249427FE7C9F1000403220123DFE652
:1036200009A803A90EC900900298FDF7D3FEC0E6D1
:1036300084000020A8DF010870B5104E82B0336806
:10364000DD6C1C6D054468460C442AB223B2ADF80B
:103650000420ADF80020ADF80630ADF8023007F0D8
:103660009BFD48B13368214628465B6E5B689847EE
:1036700007F024FC0028F5D102B070BD84000020C2
:103680002DE9F0431E4C83B025682E7E2F6DEC6C27
:10369000013E07EB010907EB030825181444B2B2F9
:1036A0006846AE1A1119C2EB09034244ADF8006036
:1036B000ADF80410ADF80230ADF8062007F06CFD4F
:1036C000D8B109F1010708F1FF36224649462846DC
:1036D00004F08AFB22464146284604F085FB324628
:1036E0003946284604F0DAFB32463946204604F0D3
:1036F000D5FB07F0E3FB0028E7D103B0BDE8F0837A
:1037000084000020104B1B6870B5DD6C82B01C6D0E
:1037100005446846661814442BB2ADF80260ADF853
:103720000640ADF80030ADF8043007F035FD40B18B
:1037300022463146284604F0B1FB07F0BFFB0028C3
:10374000F6D102B070BD00BF840000202DE9F04129
:103750000025124F124EDFF84C803C681CB1A04788
:10376000041C18BF012405F029FE3368002818BF87
:1037700001244BB1984738B1D8F8003013B1012477
:1037800098473CB10125E8E7D8F80030002BF7D185
:10379000002CF7D12846BDE8F08100BF9CCB01206A
:1037A000A0CB012098CB0120F0B5104C83B0246849
:1037B000E56C246D2F18154466181C446846ADF856
:1037C0000070ADF80450ADF80260ADF8064007F0A7
:1037D000E3FC48B123462A463146384604F086FBCE
:1037E00007F06CFB0028F5D103B0F0BD8400002089
:1037F000154B01461B68F0B5DA6C83B01B6DB1F94F
:1038000000706846B1F90450B1F902601744B1F98B
:10381000064015441E44ADF800701C44ADF8045039
:10382000ADF80260ADF8064007F0B6FC48B123469B
:103830002A463146384604F059FB07F03FFB002882
:10384000F5D103B0F0BD00BF84000020002850D0A7
:10385000C388013B10B5848880681F2B47D8DFE8F8
:1038600003F0162346314646463C46464646464603
:1038700046404646464646464646464646464646EE
:103880004610A31002FB031150F8210010BD02FBEB
:1038900004F200EBD104C843A35C00F0070023FA54
:1038A00000F000F0010010BD02FB04F200EB9104F7
:1038B0006FEA4100A35C00F0060023FA00F000F07C
:1038C000030010BD02FB04F200EB5104CB07A05C27
:1038D0004CBF00F00F00000910BD02FB0404605C47
:1038E00010BD631002FB031130F8110010BD002061
:1038F00010BD7047034B082153F82000C3689B6A32
:10390000184700BF78CB012008B504F02FFBBDE8B5
:10391000084004F0D3BC00BF024B00211B68DB69E8
:103920005B68184784000020024B1B68DB695B68FA
:10393000184700BF8400002008B105F089BE704719
:1039400008B504F01BFBBDE8084004F0B7BC00BF9D
:10395000012801D900207047014B53F8200070471F
:103960006CC80120014B1B68187C70478400002044
:10397000024B1B68DB69587E704700BF8400002043
:1039800038B50D46144604F067FB10B100232B60D8
:10399000236038BD044A054BB2F90020B3F900306A
:1039A00002600B60704700BF66CB012068CB01202E
:1039B000044B3422352061219A7018701846197111
:1039C000DA7070476C000020027EC07E02FB00F0BF
:1039D000704700BF024B53F820301B6918687047CE
:1039E00078CB0120024B53F820301B695868704790
:1039F00078CB0120024B1B685884002099847047C3
:103A00008400002090B583B000AF534A524B1B682E
:103A100023F001031360514B1B68C3F30A0340F208
:103A2000494293420CBF01230023DAB24B4B1B687F
:103A3000C3F30A0340F251418B420CBF0123002320
:103A4000DBB21343DBB21946444B1B68C3F30A03D2
:103A500040F2524293420CBF01230023DBB20B43DE
:103A6000002B10D03E4B01221A6000BF3C4B1B685C
:103A7000002BFBD13B4B3C4A1A603A4B1B683B4A3C
:103A8000934218D0FEE73A4B1B68C3F30A03B3F521
:103A90008A6F10D1374B01221A6000BF354B1B686B
:103AA000002BFBD1344B304A1A60334B1B682F4A32
:103AB000934200D0FEE702F091FC304B2E221A70A8
:103AC00010F01AFA2E480DF081FC0FF0ABFC786074
:103AD00004F03CFB0346002B0CBF01230023DCB2A7
:103AE00004F07AFB0346002B0CBF01230023DBB25A
:103AF0002343DBB2002B09D004F03EFB044604F064
:103B000081FB03461946204604F08EFE002100206A
:103B100002F018F806F0DEF81A4B1B68002B12D0E2
:103B20000DE0184B1B681B68002B03D0154B1B685E
:103B30001B689847134B1B685B68124A1360114B54
:103B40001B68002BEDD1104B01221A707B681846C0
:103B50000C37BD4690BD00BF002000E0002004E00F
:103B60000830024000300240C2A507F4CDB5E8B5E8
:103B70000010005C084C0258004C025864CB012035
:103B80004CC70120C4C7012070CB01201C4B002270
:103B90001C491B681C4830B55B7C83B051F823106E
:103BA0000969FFF73FF9054638B31820FEF768FBAF
:103BB000044628B92846FFF7FBF9204603B030BD7C
:103BC000A860FEF7CFFD0346204600931D60FEF778
:103BD000C9FD43F6FF7103464CF2010202A8998029
:103BE00040F8043DD9801A815A81FEF77FFE68466D
:103BF000FEF77CFE204603B030BD03B030BD00BFF1
:103C00008400002078CB012030E0010810B582B09C
:103C100028B90F4B1B68186E08B902B010BDFEF72B
:103C2000A1FD02AB446943F8080D1846FEF75EFE9D
:103C3000002CF2D0204602ACFEF794FD826844F8D6
:103C4000040D936898472046FEF750FE02B010BD61
:103C50008400002000B97047014A114600F002B804
:103C600001F0FFFF2DE9F047DFF8F08084B0064651
:103C700000200C46154601F043FFD8F8003081467D
:103C800030461F6EFEF76EFD03680090986901F0E4
:103C900019FF314B82469C42009B4DD01A895B89AB
:103CA000013AADF80840013BADF80A5022442B44DC
:103CB000ADF80C20ADF80E3005F0B0F86846FEF710
:103CC00015FE02A807F068FA18BB504601F0FAFE8C
:103CD000002F39D0D8F800301B6E93BB05F00CFADA
:103CE0003846FEF73FFD04ACD8F8003044F80C0D20
:103CF0001F660068FFF75EF92046FEF7F7FD04F047
:103D00001FFE04F057FD484601F0FAFE04B0BDE87E
:103D1000F0872A462146304600F038FD07F0CEF8FD
:103D20000028D2D02A462146304600F02FFD07F069
:103D3000C5F80028EDD1C8E7B3F90440B3F906503F
:103D4000ACE701F0B5FEC9E701F0B2FE484601F06C
:103D5000D7FE04B0BDE8F08701F0FFFF840000202B
:103D60002DE9F0431D4F0E4605461D4C396885B0C0
:103D700017469846487C54F8204001E0246814B364
:103D8000E3681A68042AF9D1DB6A012120469847C2
:103D90008146F0B12469A3689847124A013043462E
:103DA0003146CDF8049006BF14464FF0010E4FF097
:103DB000000E3A4628460294CDF800E000F062FB7F
:103DC00005B0BDE8F083FFF765F9044608B1C368A4
:103DD000DAE7002005B0BDE8F08300BF84000020D2
:103DE00078CB0120E8DE01082DE9F0431C4D0F4699
:103DF00006461C4C296885B090469946487C54F884
:103E0000204001E02468DCB1E3681A68042AF9D193
:103E1000DB6A0121204698470546B8B12469A368AA
:103E20009847013016D00C994B46424602940091B7
:103E300039460195304600F025FB05B0BDE8F0831A
:103E4000FFF728F9044608B1C368E1E7002005B090
:103E5000BDE8F0830C9B044C43F001030C93E2E7B4
:103E60008400002078CB0120E8DE010870B4059CB6
:103E700014B170BC00F006BB204670BC704700BF98
:103E8000C0B1114B1B681B6E984210B5044682B03E
:103E900016D02046FEF766FC436901905BB90068C6
:103EA000FFF786F801A8FEF721FD2046FEF728FA65
:103EB00002B010BD7047184602F07CF80198EEE79A
:103EC00001F0F6FDE5E700BF840000202DE9F04F8A
:103ED000DFF864B1894604465548DBF800101E46F9
:103EE00087B092464F7CC3573846012B40F38E80F3
:103EF00004F032F90546384604F074F90746002C00
:103F000000F0818005A904A8FFF744FD049A059BF1
:103F10001544B4F900201F44B4F9023022EAE272D9
:103F2000013D23EAE373013F114602921846B4F9BA
:103F3000042003939542D4BFC1EB0501C1EB0201FC
:103F4000B4F9063002460D469F42D4BFC2EB0702C9
:103F5000C2EB030201351746013706B97E42002D38
:103F60004DDD002F4BDD109B2A460399009333460D
:103F70000298FFF739FF804600284FD000F0C2F8C2
:103F80008742064604D0DBF80030986C00284BD1FD
:103F900040463D46002400F0B5F90EE0AD1BACB93B
:103FA00050463444C847234BFF201B6803B1984751
:103FB0004046FFF74FFEA74212DDAE42EEDD294636
:103FC000404600F085F9AD1B002CE9D0039B40462C
:103FD0000299E21800F0C0F94046FFF717FEDFE74C
:103FE0004046FFF74DFF002000F08CF9B74206D0A5
:103FF000DBF80030986C10B1332107F011FE00207F
:1040000007B0BDE8F08F03940294A6E704F04EF8E1
:104010000546384604F074F8074670E75046C8472E
:10402000012007B0BDE8F08F322107F0F9FDAFE7BE
:1040300074CB012000CA01208400002030B583B079
:1040400018B90446204603B030BDFEF78BFB036869
:1040500002AD1B6945F8040D9B68984704F090FD7C
:1040600004462846FEF742FC204603B030BD00BFA0
:1040700070B110B582B0FEF775FB00F1180402AB09
:1040800043F8040D1846FEF731FC204602B010BD7F
:10409000704700BF10B582B060B1FEF763FB02ABA2
:1040A000B0F9044043F8040D1846FEF71FFC204603
:1040B00002B010BD044B1B68186E0028EDD10446F9
:1040C000204602B010BD00BF8400002010B582B0B1
:1040D00060B1FEF747FB02ABB0F9064043F8040DB0
:1040E0001846FEF703FC204602B010BD044B1B68C7
:1040F000186E0028EDD10446204602B010BD00BF66
:104100008400002010B582B060B1FEF72BFB02AB3B
:10411000B0F90A4043F8040D1846FEF7E7FB2046C5
:1041200002B010BD044B1B68186E0028EDD1044688
:10413000204602B010BD00BF840000202DE9F04FE2
:10414000804687B0002758E0002E7ED105F09EFA09
:10415000804500F09A80584B01264946224602933A
:104160005846564B009601932B4600F08BF981463A
:104170004046FEF7F7FA03460590C0F82490B9F1DF
:10418000000F79D0826A05A8DFF840B142F480328E
:104190009A62FEF7ABFB484600F0B4F88246304620
:1041A000474E01F06BFF4846FFF762FF454B05FBAA
:1041B00004F2454C197892003568A84740462568B6
:1041C000CBF8008005F0B4FA2060404607F0FAFB17
:1041D000002225601046CBF8002001F04FFF50462A
:1041E00000F090F84046FEF79BFB406AB0FA80F37F
:1041F0005B090137042F22DC0BB34046FEF7B2FA0D
:10420000034605A8B3F900B0B3F90290B3F904402E
:10421000B3F90650CBEB04040593C9EB05055E6AC0
:104220000134FEF763FB0135002DC8BF002CD4BF5D
:104230000123002388DC01370020042FDCDD08B1D6
:1042400000F0BCF807B0BDE8F08F3046FEF78AFA00
:10425000034606A8B3F9065040F8083DB3F90440F8
:10426000FEF744FBA94501D1A345BBD04A465946B8
:10427000304600F071F8B5E705A8FEF737FB404679
:1042800007F0A0FB33464846B3E703F049FF064674
:1042900003F08CFFB44202DC85427FF75CAFB4428E
:1042A000A8BF34468542A8BF0546214640462A4657
:1042B00006F0C2FB4FE700BFE8DE010830F6010858
:1042C0002801002004CA01209CCA012020D001201E
:1042D00010B50C4682B060B1FEF744FAB0F90A306E
:1042E0000190A342C8BF448101A8FEF7FFFA02B0C3
:1042F00010BD034B1B68186E0028EDD102B010BD35
:1043000084000020F0B5134F83B03B681E6ED8B117
:104310000446B6B904F0F0FE2046FEF723FA02ADDB
:104320003B6845F8040D1C660068FEF743FE28460E
:10433000FEF7DCFA04F004FB04F03CFA304603B06C
:10434000F0BD01F0B5FBE5E701F0B2FB304603B08C
:10435000F0BD00BF8400002030B50C4683B028B902
:10436000154B1B68186E08B903B030BD15B224B2E6
:10437000FEF7F8F9C5808480009004F01BFA009BDA
:10438000586920B96846FEF7B1FA03B030BDFEF7B0
:10439000E9F9009B0190B3F90820B3F90A30828053
:1043A000C38013B10AB10480458001A8FEF79EFACC
:1043B0006846FEF79BFAE8E78400002000B97047E2
:1043C00070B584B00446FEF7CDF9014601A8B1F9F5
:1043D0000460B1F906500A894B89324401912B449B
:1043E000ADF80860013AADF80A50013BADF80C2079
:1043F000ADF80E30FEF77AFA02A806F0CDFE40B115
:104400002A463146204600F0A3F906F057FD002861
:10441000F6D104B070BD00BF00B9704770B584B06C
:104420000C4615460646FEF79DF9154A03460190CF
:1044300094421FD01A8901A85B89013AADF808405F
:10444000013BADF80A5022442B44ADF80C20ADF8E6
:104450000E30FEF74BFA02A806F09EFE40B12A4647
:104460002146304600F074F906F028FD0028F6D108
:1044700004B070BDB0F90440B0F90650DAE700BFEF
:1044800001F0FFFF2DE9F04FDFF82C8187B0824665
:104490008B46D8F8000017461E461299437C00222E
:1044A0001198FEF7BFFC00284DD0036905469B68B4
:1044B000984704F065FB00FB07F48146FEF766F9B8
:1044C000109B073413F001034FEAD4043FD0002EB1
:1044D0002CDD002B42D004FB06F01830FDF7CCFE9B
:1044E000024668B30023029310460392FEF73AF99E
:1044F000029A034606A8A3F804A0A3F806B01F81F9
:104500005E81DC60C3F810905A6140F8043D1D6084
:10451000FEF7ECF9129AD8F800302A61039A104697
:10452000AA605B7CAB6107B0BDE8F08F002C34D192
:10453000204676428642A8BF064693B3002ECADCC8
:104540002846FEF735FD002007B0BDE8F08F0028B3
:10455000B8BF0330801000EB4000B8E700933A4644
:1045600033465946504601F09BFC029004FB06F08E
:104570001830FDF785FE02460028B5D12846039283
:10458000FEF716FD029B002BDDD01846FDF7B8FEA6
:10459000039A104607B0BDE8F08F1838B0FBF4F06E
:1045A000C7E700933A4633465946504601F078FC37
:1045B000002E0290DADCC3E7840000202DE9F04FE2
:1045C000DFF880918BB05D4BD9F800C0DFF87881BF
:1045D0009CF811E053F82E40D8F80030D4F810E0E1
:1045E000002B00F0A6801646DCF8602007460D463A
:1045F000002A75D0E2681268072A78D0504AC2EBC8
:104600000E02B2FA82F25209002A70D03846FEF742
:10461000A9F803460AA8B3F908B040F8083DB3F971
:104620000AA00BEB0504DB68013C0593FEF75EF97D
:10463000D9F80010B1F90C30B1F90800E41A002CD7
:10464000CCBFC4EB0B045C4685425EDB0023002C30
:1046500043DD0AEB0600B1F90EE00138CEEB0000B5
:104660000028C8BFC0EB0A0AB1F90A00B04247DC13
:104670000021BAF1000F079306912EDD3846FFF7AF
:10468000F7FC079BD9F80020069901FB0B31136E4C
:1046900000EB8107002B3CD01846FEF763F802467A
:1046A0000AA8B2F90410B2F906306D1A40F8042DC8
:1046B000F31AA900D56801F1180605FB0366164434
:1046C000FEF714F94EB1059B224600953946019339
:1046D00030465346D8F80040A0470BB0BDE8F08FF5
:1046E000E2681268B2FA82F25209002A8ED1734649
:1046F0003246294638460EF01DFC0BB0BDE8F08F5F
:10470000811B0646C1EB0A0AB3E7431B0546E41AC0
:104710009DE7507C4FEA8B02DFF830E03B46029287
:104720002946CDF804A032460094DEF80040A047A8
:10473000D3E773460EF0FEFBCFE700BF78CB012036
:10474000E8DE01088400002084CB012080CB01201A
:104750002DE9F04182B00F4690460646FEF702F87A
:10476000034602AC16211D68002044F8043DEB68A6
:104770005B6A984705462046FEF7B8F81DB14246E9
:1047800039463046A84702B0BDE8F08100B970470D
:104790002DE9F04FA3B08B4692460446FDF7E2FFA9
:1047A00022AB456943F81C0D1846FEF79FF82046DA
:1047B000FFF744FC0828814640DD002D3ED120460D
:1047C000FDF7D0FF22AA0346B0F9081042F8100DF9
:1047D00010460D92B3F90A200A9109921968DA6815
:1047E0000E690B930E92FEF781F892489249006889
:1047F000D6F80480407C51F820100D692B680C938A
:10480000FFF778F808280B9B14D910288BBF2022BB
:104810001022042702270B92AE4200F0F882B9F171
:10482000200F00F0B381B9F1100F00F0458123B0E3
:10483000BDE8F08F082201270B92EDE7002101234C
:1048400020467C4E20910DF188080B9121930A930C
:10485000FDF788FF074630683A68FB68B7F908102B
:104860001269139314913B69B7F90A10407C0993BC
:10487000169148F8147D5568D7F81490FFF73AF868
:1048800032680E90507CFFF7ADF807464046FEF7C1
:104890002DF8099A0A9B082A0B9940F29D80102A4C
:1048A00013460A918CBF042302230C93BD4200F0EF
:1048B000C1813368587CFFF78DF8149B0646980039
:1048C000FDF7DAFC10900028B1D02046FFF7D0FBAE
:1048D0000446B9F1000F00F088804846FDF742FF1A
:1048E000169B1E90002B40F3A1810023DDF8388039
:1048F000CDF834A00B93139BCDF848B0E318159373
:104900001FAB19460F93836800225B691F920B9AB5
:104910009847159B139A04469B1A0E93149B834247
:1049200000F0F680099B012B00F08880002842D01F
:104930001CAB11931098FDF715FF099B07461C90BF
:10494000082B1F9A65D90C9BA3460E99824602FB41
:10495000031939F8020BA847B047BBF1010B4AF81D
:10496000040BF6D1B8F11F0F04D838464246214651
:1049700001F09AFB0A9901231F982246059112998A
:104980001C9F08440021019300930391CDF80880F7
:104990000D99049703F0A2F81198FDF7A7FF1F9B4C
:1049A0001E981C440B9A83680F991F945B69984763
:1049B00004460028BED1159A13990B9B0A44013373
:1049C00015920D9A0B9301320D92169A9A4200F0AD
:1049D0002D811E980F9996E7012A03D120AB0C92E6
:1049E0000A9363E70C930A9160E701250A9B139AE7
:1049F0000999059304905846039202915146169BDB
:104A0000149A0195009503F069F81098FDF778FC69
:104A10000DE70C9BA2460E99814602FB031B1BF877
:104A2000010BA847B047BAF1010A49F8040BF6D1C7
:104A300098E700BF8400002078CB01200028BAD07E
:104A4000CDF8608019960B9F0A9EDDF83880DDF85E
:104A50003490DDF848A0DDF83CB017951192DDF8F0
:104A60007CE02246119D01230EF007004946039584
:104A7000012506900AEB0E00BEF1000F0596029587
:104A8000B8BF0EF1070E0195009508EBEE0ECDF8BC
:104A900010E003F067FF1F9B1E983A461C445946DE
:104AA00083681F945B69984704460028D7D1179DF7
:104AB000DDF86080199E7EE70A9B03FB07F0FDF797
:104AC000DBFB109000283FF4B2AEFDF74BFE2090C8
:104AD0002046FDF747FE00F118031E900E932B6948
:104AE000002B00F0A6817369002B00F0A281B0F9C1
:104AF00008008000FDF7C0FB1190002840F0BA814B
:104B00001F900D98FDF7F2FE20A8FDF7EFFE7CE761
:104B10001098FDF727FE099B81461C90082B149FD7
:104B20000446DDF838A028D93AF8020BA847B04768
:104B3000013F44F8040BF7D1B8F11F0F04D84846E1
:104B40004246149901F0B0FA22AB12980D991A4618
:104B50000A9B059300230393012352F818EDCDF827
:104B6000088017460193149A0093CDF810E002F0E4
:104B7000B5FF3846FDF7BAFE1DE71AF8010BA84746
:104B8000B047013F44F8040BF7D1D5E70A9B07FB78
:104B900003F0FDF771FB0E9000283FF448AEFDF7DF
:104BA000E1FD20902046FDF7DDFD1E902C6900F10F
:104BB0001808002C00F0EB800A9A5C4601260A9542
:104BC0004FEA82099346CDF83090DDF8249017E043
:104BD000042F21D0012F15D00B9B0020209D514682
:104BE0000293012305905A460390204601969A4469
:104BF0000096049502F072FFB9F1010900F0E88017
:104C0000022FE5D10C9D40463B465A46A8440A9DDA
:104C100020992D69A847DFE70C9B40460A9D5A461C
:104C2000984420993B462D69A847D5E71EA8FDF773
:104C30005DFEEAE62046FFF71BFA8046B9F1000F59
:104C400000F0D4804846FDF78DFD169B1E90002B8A
:104C500040F3C88000261FABCDF834A00125B14633
:104C6000DA461F4683683246CDF87C9039465B6948
:104C70009847149B0446834231D0099B012B57D09F
:104C800020B30D9B0B9603EB060B1F9801230C9989
:104C90000A9A01FB008E099E139950440592224600
:104CA00003915946CDF810E002960195009502F067
:104CB00015FF1F9B1E9839461C440B9A83681F944E
:104CC0005B69984704460028DFD10B9E139B013691
:104CD0009844169BB34240F385801E98C2E7CDF8F6
:104CE0002C80B346984600E0A3461E980BF10104C1
:104CF0003946836822465B6998478045F4D00A9A12
:104D0000C6EB0B03DDF82C805046059201330D9A5B
:104D1000CDF810809119139E099A0396029201957D
:104D2000149A06FB03880095264602F0D7FED0E7CA
:104D30000028CBD00D9B0B9603EB060BDDF87CE037
:104D400022460A9E01230EF007005946059606905A
:104D50000AEB0E00BEF1000F139E0295B8BF0EF1D4
:104D6000070E0396019508EBEE0E0095CDF810E0C6
:104D700003F0F8FD1F9B1E9839461C440B9A83686C
:104D80001F945B69984704460028D7D19DE7A14648
:104D90000125099E0123022F51460A9A58460AEB23
:104DA000030E00F0A981042F00F07D819F4200F0E6
:104DB00052810B9CF246CDF814900294209CCDF8C1
:104DC0000C9001950095049402F088FE013EE1D11B
:104DD0000D98FDF78BFD20A8FDF788FD0E98FDF7D7
:104DE0008FFA24E51EA8FDF781FD20E501240A9B2A
:104DF000139A0999059304905846039202915146DB
:104E0000169B149A0194009402F068FE0FE50E9A26
:104E10000124183300250392514604935846099BF8
:104E2000CDF808900A9A05950194009402F056FE78
:104E3000FDE40125DDF82890099E0123022F51464B
:104E40004A4658460AEB030E00F0D480042F00F0C7
:104E5000A0809F426DD0002401950095F2460594F4
:104E600003940B9C0294209C049402F037FE013EB4
:104E7000E3D146E6FDF776FC1F9000283FF441AEF3
:104E80000A9A0124CDF828B04FEA420990460C95C1
:104E9000CDF83C90B146DDF838B017E0042F2ED0A5
:104EA000012F28D00B9B0020209D51460293012307
:104EB0000590424603909A44019400940A98049500
:104EC00002F00CFE099B013B09932BD0022FE5D188
:104ED000209B1E463B4642461F995846D9F814501F
:104EE000A8470F9D31463B46AB440C9D42461F9858
:104EF0002D69A847D6E7209B1E460223EBE7209B9F
:104F000042460F9E58461D461F990223B344D9F8C6
:104F10001460B04729460C9D3B4642461F982D69B8
:104F2000A847BFE71FA8FDF7E1FC1198FDF7E8F9D6
:104F3000E7E50A9B444609965D000C9E0C95209D72
:104F4000DDF83880DDF8289038F8020BA047B0472C
:104F5000B9F1010905F8010BF6D10E9D01230B985B
:104F60005146AE460C9D02905846AE44209DCDF869
:104F700014909A440A9ACDF80C90019700970495E2
:104F8000CDF838E002F0AAFD099B013B0993D6D188
:104F9000B7E50A9B0125099644465E000C9F0C96D6
:104FA000209EDDF83880DDF8289038F8020BA04705
:104FB000B847B9F1010946F8040BF6D10E9E01235A
:104FC0000B985146B6460C9E02905846B644209E19
:104FD000CDF814909A440A9ACDF80C90019500955A
:104FE0000496CDF838E002F079FD099B013B099366
:104FF000D6D186E50A9B0125099644465E000C9FA2
:105000000C96209EDDF83880DDF8289038F8020BE9
:10501000A047B847B9F1010926F8020BF6D10E9E58
:1050200001230B985146B6460C9E02905846B64452
:10503000209ECDF814909A440A9ACDF80C900195D0
:1050400000950496CDF838E002F048FD099B013B3D
:105050000993D6D155E595000C9C09960C95209D99
:105060004646DDF8289056F8040BA047B9F101092F
:1050700005F8010BF7D10B980123209E51460290B1
:105080005846CDF814909A440A9ACDF80C9001979E
:10509000009704960C9D02F021FD099BA844013B5A
:1050A0000993DCD194E60996012596000C9C0C9698
:1050B000209E4746DDF8289057F8040BA047B9F129
:1050C000010946F8040BF7D10B980123209F5146A4
:1050D00002905846CDF814909A440A9ACDF80C9054
:1050E0000195009504970C9E02F0F8FC099BB044D2
:1050F000013B0993DCD16BE60996012596000C9CD7
:105100000C96209E4746DDF8289057F8040BA047E0
:10511000B9F1010926F8020BF7D10B980123209F62
:10512000514602905846CDF814909A440A9ACDF808
:105130000C900195009504970C9E02F0CFFC099B02
:10514000B044013B0993DCD142E600BF094B1A6A27
:10515000002A18BF002003EB800210B49469002CD1
:1051600004DB4FF0FF3443F8201094615DF8044BEA
:10517000704700BFE8C7012058B311B30AB3B1F9B3
:105180000030F0B5B2F90050B2F902E0B1F90240D6
:105190009D42B2F90470B2F90660A8BF1D46B1F98C
:1051A00004207445B1F90630A8BF7446BA420580A0
:1051B000B8BF3A46B3424480B8BF33468280C3800A
:1051C000F0BD002908BF11460A684B6802604360C1
:1051D0007047704778B189B2C38892B270B40688BC
:1051E000448885880E4414441A4429440680448027
:1051F0008180C28070BC704770B4124D04462B6829
:105200006A6893420FD0104EB34293E8070014BF70
:105210000C333C3B84E807002B60207A003070BCE4
:1052200018BF01207047094A934204D013E90700D0
:1052300084E80700F1E73C3393E8070084E80700BF
:10524000EBE700BF8800002050C8012014C80120EF
:10525000034B09CBC01AB0FA80F04009704700BF79
:1052600088000020044B054A5B68934214BF0C3B46
:105270003C33187A704700BF8800002014C8012012
:10528000F0B53C4E85B00446336D002B55D03A4AFC
:1052900001AD3A49F36C116094E8070085E8070016
:1052A0000BB128469847364F3C687B689C4232D009
:1052B000B342304A32D09DF80C00A3F10C0113F830
:1052C00004EC8C46864535D18C4233D091423BD09C
:1052D00002F13C0E11F8042C82423DD0734595E852
:1052E000070083E807000BD00C339C427B600BD097
:1052F000B36C0BB12846984700F050FC05B0F0BDE8
:105300001C4B9C427B60F3D11E4B9C4214BF0C345F
:105310003C3C3C60ECE7DFF86CE0DFE79DF80C001C
:1053200096F8442082421DD106F13C0E744519D0F6
:105330007146CFE702F13C0ED0E7134B304640F800
:10534000503F01F0C9FFA2E791F8442001F13C0E63
:105350008242C3D16346C1E7B34208D0A3F10C0C2B
:105360006346BBE795E8070086E80700BCE7054B06
:10537000B4E700BF14C801202CD00120B197000869
:105380008800002050C80120811A0108094A1368CA
:1053900051688B420CD010B5074CA34293E8030030
:1053A00014BF0833503B136005F08CF8012010BD8A
:1053B000002070471C010020B0C90120F0B5164C38
:1053C000059F2568069CB5F908E0B5F90C607045A5
:1053D000B8BF7046B242A8BF324690421ADCB5F957
:1053E0000A60B5F90E50B142B8BF3146AB42A8BF12
:1053F0002B468B4203DAF0BD25682DB12C46E568BB
:105400002D6835F00405F7D106940597BDE8F04006
:1054100003F072B8F0BD00BF84000020B0F9022094
:10542000B1F906309A4214DCB1F90220B0F9063025
:105430009A420EDCB0F90020B1F904309A4208DC3F
:10544000B0F90400B1F900308342CCBF0020012044
:1054500070470020704700BF08B5034B0146742217
:105460001868FAF7FEFE08BD8400002000B97047F6
:105470002DE9F04FABB00D4616461C921B91FDF77F
:1054800071F9B0F9043004689D422790119400F03E
:1054900058810020FEF736FFAD4B119A1B689269C8
:1054A000597C1F900846279D19928242209118BF6F
:1054B0005A74B5F90430B5F9062019460793B5F9C1
:1054C0000830104612925B1AB5F90A201C46121ACF
:1054D00008931646139222462B8A01329B071A9292
:1054E000324602F101021D9240F10E811B9B6A6956
:1054F0005B1A0392002B1C9A1493A2EB000440F356
:10550000A48109934FF0010B0023DDF868901093FC
:10551000002C40F3A5811D9B4FF0000A17941693B1
:1055200001231593119E8B4BB0691B56012B40F341
:1055300086810023ADF8A230ADF8A03002F00CFE59
:10554000431EB069ADF8A43002F04CFE0138ADF84E
:10555000A60027985A4600F1140107F0F5FA2190A9
:10556000002800F0D08027985A4600F1140107F077
:10557000EBFA2390002800F0C180279BD868002810
:1055800040F07E81169A524500F0B4801A9B109923
:105590009A00CDF810900AFB0313C4EB0A01D94618
:1055A000229005EB83030D9115990E93129B01FB3D
:1055B00002F223441E9218934FEA8B03D3460593BD
:1055C000179B139A5B45109CCCBF002301235A45BF
:1055D000B8BF00230B93129B5B440F93189B5B4453
:1055E0000A93049B1A46A24275D01498079BC0EBFD
:1055F000040A0E9D03440C935A4621460398FEF775
:1056000025F9030E06465FD0099B089AA342079925
:10561000CCBF00230123A2420C9A214402EB0407D1
:10562000BDF9A020B8BF00230691BA420B9903EA46
:1056300001030DDCBDF9A2200A98824208DCBDF905
:10564000A420BA4204DBBDF9A620824280F2A680E3
:105650004FF00008002B00F08380BAF1000F09DB47
:105660000D9B002B06DB1A4651460398FEF7EEF819
:10567000030E75D0BDF9A0309F4223DBBDF9A230E7
:105680000A9883421EDCBDF9A430BB421ADBBDF987
:10569000A630834216DB30462F4B229EFF221B682A
:1056A00046F07F419847199A2C4B53F822301B69DA
:1056B0001B689847219B02460A9900933846119B24
:1056C0000DF0B2F8C5F82080059B4C44CA441D4437
:1056D000049BA34290D10E9B1E99159A0B449344B0
:1056E0000E930D9B1946169B11445B450D917FF45B
:1056F00067AF279B239918680CF05EFD279B2199C3
:1057000018680CF059FD279D1B991A9B1C980B4497
:10571000A980421E1D99013BE8800A442B81199BF8
:105720006A811946209A914202D0094B1B685A742B
:105730001F98FEF7E7FD27A8FDF7D8F82BB0BDE8C6
:10574000F08FB0F906309E427FF4A3AEF3E700BFBE
:105750008400002074CB01209400002078CB01202D
:10576000BDF9A030069A934286DCBDF9A2200F98BD
:10577000824281DCBDF9A42006998A42FFF67CAF03
:10578000BDF9A62001468242FFF676AF239B2A6A26
:1057900006980093119B0DF047F86BE7DDF89C80AD
:1057A000B8F90420BA422FDCB8F90810B9422BDB53
:1057B000B8F906E00146864526DCB8F90A008842B9
:1057C00022DBD8F81400F8B12593BB1A19462293AE
:1057D0000A9BCEEB03031A462493FEF737F8030E19
:1057E000259B11D0B8F90410B8F90820521A249951
:1057F00002FB011222990A4408EB8208D8F8202003
:1058000042F07F4090460FE0119A1068002833D094
:10581000D0F80CE039460A9ADEF814802293C0478B
:10582000229B804640F07F402493199A9A4B53F86C
:105830002220126952689047249B22900AE7F3685D
:10584000304628A91B6B984783E60022089B4FF03F
:10585000FF390992149ACB4610931344089357E6E4
:10586000139900224FF0FF3317920A4616938A4687
:1058700022441593139255E680464FF07F40D3E7BC
:10588000FCF770FF169B2690534500F099801A9BF9
:1058900010999A00CDF810900AFB0313C4EB0A018B
:1058A000D9460D9105EB830312990F934FEA8B03B1
:1058B0002144D346059318911599079B01FB02F2E9
:1058C0002292149A13440C93179B139A5B45CCBFF6
:1058D000002301235A45109AB8BF00230B93129B53
:1058E0005B441E93189B5B440A93049B93425AD0DB
:1058F0001446149A0F9DC2EB040A5A462146039897
:10590000FDF7A4FF0646002846D0099B089AA3424B
:105910000B99CCBF00230123A242BDF9A020B8BF40
:1059200000231F460C9B03EB0408079B0F404245D6
:1059300023440CDCBDF9A2200A98824207DCBDF9A1
:10594000A420424503DBBDF9A620824257DA00229B
:105950000692002F39D0BAF1000F0E9309DB0D9B90
:10596000002B06DB1A4651460398FDF76FFF0E9B8E
:1059700058B3BDF9A02090450CDBBDF9A2300A99BF
:105980008B4207DCBDF9A430434503DBBDF9A630EB
:105990008B4257DA069B2B62059B4C44CA441D443C
:1059A000049B9C42A9D10F9B2299159A0B449344C6
:1059B0000F930D9B1946169B11449B450D9183D166
:1059C00026A8FCF793FF279B94E6BDF9A0209A42F6
:1059D000D1DCBDF9A2101E9FB942CCDCBDF9A410E8
:1059E0009942C8DBBDF9A610B942C4DB1846239B17
:1059F0002A6A39460093119B0CF016FFB9E7279AE3
:105A00000692B2F9042042450DDC0698B0F9081060
:105A1000414508DBB0F906E00A998E4503DCB0F990
:105A20000A00884218DA119A106800288FD0D0F83E
:105A30000CE041460E930A9ADEF8143098470E9B0C
:105A4000069086E7269A4046119B52F82620219E12
:105A500000960CF0E9FE9DE72593C2EB0803CEEB20
:105A6000010206990E93486919462492FDF7EEFE4D
:105A7000259B0028D7D00698B0F90410B0F908206B
:105A8000521A249902FB01120E990A4400EB820279
:105A9000126A06925DE700BF78CB012008B5034B80
:105AA00074221968FAF7DDFB08BD00BF84000020EE
:105AB00008B502F031FE02F043FFBDE8084003F0F4
:105AC000ADB900BF70B50A4D01282A68567C01D9CE
:105AD000304670BD0446FDF7DDFA0028F8D02B688B
